{
  "_format": "hh-sol-artifact-1",
  "contractName": "MfaAudit",
  "sourceName": "contracts/MfaAudit.sol",
  "abi": [
    {
      "anonymous": false,
      "inputs": [
        {
          "indexed": true,
          "internalType": "bytes32",
          "name": "approvalHash",
          "type": "bytes32"
        },
        {
          "indexed": true,
          "internalType": "address",
          "name": "merchant",
          "type": "address"
        },
        {
          "indexed": false,
          "internalType": "uint256",
          "name": "timestamp",
          "type": "uint256"
        }
      ],
      "name": "MfaLogged",
      "type": "event"
    },
    {
      "inputs": [
        {
          "internalType": "bytes32",
          "name": "approvalHash",
          "type": "bytes32"
        }
      ],
      "name": "logMfa",
      "outputs": [],
      "stateMutability": "nonpayable",
      "type": "function"
    }
  ],
  "bytecode": "0x608060405234801561001057600080fd5b50610170806100206000396000f3fe608060405234801561001057600080fd5b506004361061002b5760003560e01c8063e44ba40d14610030575b600080fd5b61004a600480360381019061004591906100d9565b61004c565b005b3373ffffffffffffffffffffffffffffffffffffffff16817f8f0bc46eb224c021b92f1a83b75fe3c44e38595b33bd2e2eedc0e59f8bf6b9fc42604051610093919061011f565b60405180910390a350565b600080fd5b6000819050919050565b6100b6816100a3565b81146100c157600080fd5b50565b6000813590506100d3816100ad565b92915050565b6000602082840312156100ef576100ee61009e565b5b60006100fd848285016100c4565b91505092915050565b6000819050919050565b61011981610106565b82525050565b60006020820190506101346000830184610110565b9291505056fea2646970667358221220c107e4e32fe68a0473d32ecca2a5e99af008eedef6d580b6e031678d2893777464736f6c63430008180033",
  "linkReferences": {},
  "deployedLinkReferences": {}
}